{
  "_format": "hh-sol-artifact-1",
  "contractName": "NftMarketplace",
  "sourceName": "contracts/NftMarketplace.sol",
  "abi": [
    {
      "inputs": [],
      "stateMutability": "nonpayable",
      "type": "constructor"
    },
    {
      "anonymous": false,
      "inputs": [
        {
          "indexed": true,
          "internalType": "address",
          "name": "owner",
          "type": "address"
        },
        {
          "indexed": true,
          "internalType": "address",
          "name": "approved",
          "type": "address"
        },
        {
          "indexed": true,
          "internalType": "uint256",
          "name": "tokenId",
          "type": "uint256"
        }
      ],
      "name": "Approval",
      "type": "event"
    },
    {
      "anonymous": false,
      "inputs": [
        {
          "indexed": true,
          "internalType": "address",
          "name": "owner",
          "type": "address"
        },
        {
          "indexed": true,
          "internalType": "address",
          "name": "operator",
          "type": "address"
        },
        {
          "indexed": false,
          "internalType": "bool",
          "name": "approved",
          "type": "bool"
        }
      ],
      "name": "ApprovalForAll",
      "type": "event"
    },
    {
      "anonymous": false,
      "inputs": [
        {
          "indexed": true,
          "internalType": "uint256",
          "name": "tokenId",
          "type": "uint256"
        },
        {
          "indexed": false,
          "internalType": "address payable",
          "name": "seller",
          "type": "address"
        },
        {
          "indexed": false,
          "internalType": "address payable",
          "name": "owner",
          "type": "address"
        },
        {
          "indexed": false,
          "internalType": "uint256",
          "name": "price",
          "type": "uint256"
        },
        {
          "indexed": false,
          "internalType": "address[]",
          "name": "subscribers",
          "type": "address[]"
        },
        {
          "indexed": false,
          "internalType": "uint256",
          "name": "likes",
          "type": "uint256"
        },
        {
          "indexed": false,
          "internalType": "string",
          "name": "title",
          "type": "string"
        },
        {
          "indexed": false,
          "internalType": "string",
          "name": "description",
          "type": "string"
        }
      ],
      "name": "NftStructCreated",
      "type": "event"
    },
    {
      "anonymous": false,
      "inputs": [
        {
          "indexed": true,
          "internalType": "uint256",
          "name": "tokenId",
          "type": "uint256"
        },
        {
          "indexed": false,
          "internalType": "uint64",
          "name": "expiration",
          "type": "uint64"
        }
      ],
      "name": "SubscriptionUpdate",
      "type": "event"
    },
    {
      "anonymous": false,
      "inputs": [
        {
          "indexed": true,
          "internalType": "address",
          "name": "from",
          "type": "address"
        },
        {
          "indexed": true,
          "internalType": "address",
          "name": "to",
          "type": "address"
        },
        {
          "indexed": true,
          "internalType": "uint256",
          "name": "tokenId",
          "type": "uint256"
        }
      ],
      "name": "Transfer",
      "type": "event"
    },
    {
      "inputs": [],
      "name": "addProfile",
      "outputs": [],
      "stateMutability": "nonpayable",
      "type": "function"
    },
    {
      "inputs": [
        {
          "internalType": "address",
          "name": "to",
          "type": "address"
        },
        {
          "internalType": "uint256",
          "name": "tokenId",
          "type": "uint256"
        }
      ],
      "name": "approve",
      "outputs": [],
      "stateMutability": "nonpayable",
      "type": "function"
    },
    {
      "inputs": [
        {
          "internalType": "address",
          "name": "owner",
          "type": "address"
        }
      ],
      "name": "balanceOf",
      "outputs": [
        {
          "internalType": "uint256",
          "name": "",
          "type": "uint256"
        }
      ],
      "stateMutability": "view",
      "type": "function"
    },
    {
      "inputs": [
        {
          "internalType": "uint256",
          "name": "_tokenId",
          "type": "uint256"
        }
      ],
      "name": "buySubscription",
      "outputs": [
        {
          "internalType": "bool",
          "name": "",
          "type": "bool"
        }
      ],
      "stateMutability": "payable",
      "type": "function"
    },
    {
      "inputs": [
        {
          "internalType": "uint256",
          "name": "_tokenId",
          "type": "uint256"
        }
      ],
      "name": "cancelSubscription",
      "outputs": [],
      "stateMutability": "payable",
      "type": "function"
    },
    {
      "inputs": [
        {
          "internalType": "string",
          "name": "_tokenURI",
          "type": "string"
        },
        {
          "internalType": "string",
          "name": "_title",
          "type": "string"
        },
        {
          "internalType": "string",
          "name": "_description",
          "type": "string"
        }
      ],
      "name": "createNft",
      "outputs": [],
      "stateMutability": "nonpayable",
      "type": "function"
    },
    {
      "inputs": [
        {
          "internalType": "uint256",
          "name": "_tokenId",
          "type": "uint256"
        }
      ],
      "name": "expiresAt",
      "outputs": [
        {
          "internalType": "uint64",
          "name": "",
          "type": "uint64"
        }
      ],
      "stateMutability": "view",
      "type": "function"
    },
    {
      "inputs": [
        {
          "internalType": "address",
          "name": "_account",
          "type": "address"
        }
      ],
      "name": "followProfile",
      "outputs": [],
      "stateMutability": "nonpayable",
      "type": "function"
    },
    {
      "inputs": [
        {
          "internalType": "uint256",
          "name": "tokenId",
          "type": "uint256"
        }
      ],
      "name": "getApproved",
      "outputs": [
        {
          "internalType": "address",
          "name": "",
          "type": "address"
        }
      ],
      "stateMutability": "view",
      "type": "function"
    },
    {
      "inputs": [],
      "name": "getCollectables",
      "outputs": [
        {
          "components": [
            {
              "internalType": "uint256",
              "name": "tokenId",
              "type": "uint256"
            },
            {
              "internalType": "address payable",
              "name": "seller",
              "type": "address"
            },
            {
              "internalType": "address payable",
              "name": "owner",
              "type": "address"
            },
            {
              "internalType": "uint256",
              "name": "price",
              "type": "uint256"
            },
            {
              "internalType": "address[]",
              "name": "subscribers",
              "type": "address[]"
            },
            {
              "internalType": "uint256",
              "name": "likes",
              "type": "uint256"
            },
            {
              "internalType": "string",
              "name": "title",
              "type": "string"
            },
            {
              "internalType": "string",
              "name": "description",
              "type": "string"
            },
            {
              "internalType": "string",
              "name": "tokenUri",
              "type": "string"
            }
          ],
          "internalType": "struct NftMarketplace.nftStruct[]",
          "name": "",
          "type": "tuple[]"
        }
      ],
      "stateMutability": "view",
      "type": "function"
    },
    {
      "inputs": [
        {
          "internalType": "uint256",
          "name": "_tokenId",
          "type": "uint256"
        }
      ],
      "name": "getIndividualNFT",
      "outputs": [
        {
          "components": [
            {
              "internalType": "uint256",
              "name": "tokenId",
              "type": "uint256"
            },
            {
              "internalType": "address payable",
              "name": "seller",
              "type": "address"
            },
            {
              "internalType": "address payable",
              "name": "owner",
              "type": "address"
            },
            {
              "internalType": "uint256",
              "name": "price",
              "type": "uint256"
            },
            {
              "internalType": "address[]",
              "name": "subscribers",
              "type": "address[]"
            },
            {
              "internalType": "uint256",
              "name": "likes",
              "type": "uint256"
            },
            {
              "internalType": "string",
              "name": "title",
              "type": "string"
            },
            {
              "internalType": "string",
              "name": "description",
              "type": "string"
            },
            {
              "internalType": "string",
              "name": "tokenUri",
              "type": "string"
            }
          ],
          "internalType": "struct NftMarketplace.nftStruct",
          "name": "",
          "type": "tuple"
        }
      ],
      "stateMutability": "view",
      "type": "function"
    },
    {
      "inputs": [],
      "name": "getNfts",
      "outputs": [
        {
          "components": [
            {
              "internalType": "uint256",
              "name": "tokenId",
              "type": "uint256"
            },
            {
              "internalType": "address payable",
              "name": "seller",
              "type": "address"
            },
            {
              "internalType": "address payable",
              "name": "owner",
              "type": "address"
            },
            {
              "internalType": "uint256",
              "name": "price",
              "type": "uint256"
            },
            {
              "internalType": "address[]",
              "name": "subscribers",
              "type": "address[]"
            },
            {
              "internalType": "uint256",
              "name": "likes",
              "type": "uint256"
            },
            {
              "internalType": "string",
              "name": "title",
              "type": "string"
            },
            {
              "internalType": "string",
              "name": "description",
              "type": "string"
            },
            {
              "internalType": "string",
              "name": "tokenUri",
              "type": "string"
            }
          ],
          "internalType": "struct NftMarketplace.nftStruct[]",
          "name": "",
          "type": "tuple[]"
        }
      ],
      "stateMutability": "view",
      "type": "function"
    },
    {
      "inputs": [],
      "name": "getNumberOfUsers",
      "outputs": [
        {
          "internalType": "uint256",
          "name": "",
          "type": "uint256"
        }
      ],
      "stateMutability": "view",
      "type": "function"
    },
    {
      "inputs": [],
      "name": "getSubscriptions",
      "outputs": [
        {
          "components": [
            {
              "internalType": "uint256",
              "name": "tokenId",
              "type": "uint256"
            },
            {
              "internalType": "address payable",
              "name": "seller",
              "type": "address"
            },
            {
              "internalType": "address payable",
              "name": "owner",
              "type": "address"
            },
            {
              "internalType": "uint256",
              "name": "price",
              "type": "uint256"
            },
            {
              "internalType": "address[]",
              "name": "subscribers",
              "type": "address[]"
            },
            {
              "internalType": "uint256",
              "name": "likes",
              "type": "uint256"
            },
            {
              "internalType": "string",
              "name": "title",
              "type": "string"
            },
            {
              "internalType": "string",
              "name": "description",
              "type": "string"
            },
            {
              "internalType": "string",
              "name": "tokenUri",
              "type": "string"
            }
          ],
          "internalType": "struct NftMarketplace.nftStruct[]",
          "name": "",
          "type": "tuple[]"
        }
      ],
      "stateMutability": "view",
      "type": "function"
    },
    {
      "inputs": [
        {
          "internalType": "address",
          "name": "owner",
          "type": "address"
        },
        {
          "internalType": "address",
          "name": "operator",
          "type": "address"
        }
      ],
      "name": "isApprovedForAll",
      "outputs": [
        {
          "internalType": "bool",
          "name": "",
          "type": "bool"
        }
      ],
      "stateMutability": "view",
      "type": "function"
    },
    {
      "inputs": [
        {
          "internalType": "uint256",
          "name": "tokenId",
          "type": "uint256"
        }
      ],
      "name": "isRenewable",
      "outputs": [
        {
          "internalType": "bool",
          "name": "",
          "type": "bool"
        }
      ],
      "stateMutability": "pure",
      "type": "function"
    },
    {
      "inputs": [
        {
          "internalType": "uint256",
          "name": "_tokenId",
          "type": "uint256"
        }
      ],
      "name": "likeSubscription",
      "outputs": [],
      "stateMutability": "nonpayable",
      "type": "function"
    },
    {
      "inputs": [],
      "name": "name",
      "outputs": [
        {
          "internalType": "string",
          "name": "",
          "type": "string"
        }
      ],
      "stateMutability": "view",
      "type": "function"
    },
    {
      "inputs": [
        {
          "internalType": "uint256",
          "name": "tokenId",
          "type": "uint256"
        }
      ],
      "name": "ownerOf",
      "outputs": [
        {
          "internalType": "address",
          "name": "",
          "type": "address"
        }
      ],
      "stateMutability": "view",
      "type": "function"
    },
    {
      "inputs": [
        {
          "internalType": "uint256",
          "name": "",
          "type": "uint256"
        }
      ],
      "name": "profiles",
      "outputs": [
        {
          "internalType": "address",
          "name": "self",
          "type": "address"
        }
      ],
      "stateMutability": "view",
      "type": "function"
    },
    {
      "inputs": [
        {
          "internalType": "uint256",
          "name": "_tokenId",
          "type": "uint256"
        },
        {
          "internalType": "uint64",
          "name": "duration",
          "type": "uint64"
        }
      ],
      "name": "renewSubscription",
      "outputs": [],
      "stateMutability": "payable",
      "type": "function"
    },
    {
      "inputs": [
        {
          "internalType": "address",
          "name": "from",
          "type": "address"
        },
        {
          "internalType": "address",
          "name": "to",
          "type": "address"
        },
        {
          "internalType": "uint256",
          "name": "tokenId",
          "type": "uint256"
        }
      ],
      "name": "safeTransferFrom",
      "outputs": [],
      "stateMutability": "nonpayable",
      "type": "function"
    },
    {
      "inputs": [
        {
          "internalType": "address",
          "name": "from",
          "type": "address"
        },
        {
          "internalType": "address",
          "name": "to",
          "type": "address"
        },
        {
          "internalType": "uint256",
          "name": "tokenId",
          "type": "uint256"
        },
        {
          "internalType": "bytes",
          "name": "data",
          "type": "bytes"
        }
      ],
      "name": "safeTransferFrom",
      "outputs": [],
      "stateMutability": "nonpayable",
      "type": "function"
    },
    {
      "inputs": [
        {
          "internalType": "uint256",
          "name": "_tokenId",
          "type": "uint256"
        },
        {
          "internalType": "uint64",
          "name": "duration",
          "type": "uint64"
        }
      ],
      "name": "sellSubscription",
      "outputs": [
        {
          "internalType": "uint256",
          "name": "",
          "type": "uint256"
        }
      ],
      "stateMutability": "payable",
      "type": "function"
    },
    {
      "inputs": [
        {
          "internalType": "address",
          "name": "operator",
          "type": "address"
        },
        {
          "internalType": "bool",
          "name": "approved",
          "type": "bool"
        }
      ],
      "name": "setApprovalForAll",
      "outputs": [],
      "stateMutability": "nonpayable",
      "type": "function"
    },
    {
      "inputs": [
        {
          "internalType": "bytes4",
          "name": "interfaceId",
          "type": "bytes4"
        }
      ],
      "name": "supportsInterface",
      "outputs": [
        {
          "internalType": "bool",
          "name": "",
          "type": "bool"
        }
      ],
      "stateMutability": "view",
      "type": "function"
    },
    {
      "inputs": [],
      "name": "symbol",
      "outputs": [
        {
          "internalType": "string",
          "name": "",
          "type": "string"
        }
      ],
      "stateMutability": "view",
      "type": "function"
    },
    {
      "inputs": [
        {
          "internalType": "uint256",
          "name": "tokenId",
          "type": "uint256"
        }
      ],
      "name": "tokenURI",
      "outputs": [
        {
          "internalType": "string",
          "name": "",
          "type": "string"
        }
      ],
      "stateMutability": "view",
      "type": "function"
    },
    {
      "inputs": [
        {
          "internalType": "address",
          "name": "from",
          "type": "address"
        },
        {
          "internalType": "address",
          "name": "to",
          "type": "address"
        },
        {
          "internalType": "uint256",
          "name": "tokenId",
          "type": "uint256"
        }
      ],
      "name": "transferFrom",
      "outputs": [],
      "stateMutability": "nonpayable",
      "type": "function"
    },
    {
      "inputs": [
        {
          "internalType": "address",
          "name": "_account",
          "type": "address"
        }
      ],
      "name": "unfollowProfile",
      "outputs": [],
      "stateMutability": "view",
      "type": "function"
    },
    {
      "inputs": [
        {
          "internalType": "uint256",
          "name": "_tokenId",
          "type": "uint256"
        }
      ],
      "name": "unlikeSubscription",
      "outputs": [],
      "stateMutability": "nonpayable",
      "type": "function"
    }
  ],
  "bytecode": "0x60806040523480156200001157600080fd5b506040518060400160405280601981526020017f4e4654204d6167617a696e6520537562736372697074696f6e000000000000008152506040518060400160405280600381526020017f4d4147000000000000000000000000000000000000000000000000000000000081525081600090816200008f919062000368565b508060019081620000a1919062000368565b505050620000bb6007620000d860201b620029ae1760201c565b620000d26009620000d860201b620029ae1760201c565b6200044f565b6001816000016000828254019250508190555050565b600081519050919050565b7f4e487b7100000000000000000000000000000000000000000000000000000000600052604160045260246000fd5b7f4e487b7100000000000000000000000000000000000000000000000000000000600052602260045260246000fd5b600060028204905060018216806200017057607f821691505b60208210810362000186576200018562000128565b5b50919050565b60008190508160005260206000209050919050565b60006020601f8301049050919050565b600082821b905092915050565b600060088302620001f07fffffffffffffffffffffffffffffffffffffffffffffffffffffffffffffffff82620001b1565b620001fc8683620001b1565b95508019841693508086168417925050509392505050565b6000819050919050565b6000819050919050565b600062000249620002436200023d8462000214565b6200021e565b62000214565b9050919050565b6000819050919050565b620002658362000228565b6200027d620002748262000250565b848454620001be565b825550505050565b600090565b6200029462000285565b620002a18184846200025a565b505050565b5b81811015620002c957620002bd6000826200028a565b600181019050620002a7565b5050565b601f8211156200031857620002e2816200018c565b620002ed84620001a1565b81016020851015620002fd578190505b620003156200030c85620001a1565b830182620002a6565b50505b505050565b600082821c905092915050565b60006200033d600019846008026200031d565b1980831691505092915050565b60006200035883836200032a565b9150826002028217905092915050565b6200037382620000ee565b67ffffffffffffffff8111156200038f576200038e620000f9565b5b6200039b825462000157565b620003a8828285620002cd565b600060209050601f831160018114620003e05760008415620003cb578287015190505b620003d785826200034a565b86555062000447565b601f198416620003f0866200018c565b60005b828110156200041a57848901518255600182019150602085019450602081019050620003f3565b868310156200043a578489015162000436601f8916826200032a565b8355505b6001600288020188555050505b505050505050565b615896806200045f6000396000f3fe6080604052600436106101d85760003560e01c80636352211e11610102578063baef978711610095578063c9df908111610064578063c9df9081146106bc578063cde317af146106e5578063d8cb55e314610722578063e985e9c51461074d576101d8565b8063baef9787146105e9578063c36fe3d614610619578063c7e7709d14610656578063c87b56dd1461067f576101d8565b8063776ce868116100d1578063776ce8681461055057806395d89b411461056c578063a22cb46514610597578063b88d4fde146105c0576101d8565b80636352211e1461047057806370a08231146104ad57806374bde7ea146104ea5780637685631914610513576101d8565b8063212350831161017a57806342842e0e1161014957806342842e0e146103c357806342b23193146103ec578063497a98501461041c5780634d00928814610445576101d8565b8063212350831461032a57806323b872dd146103465780633725f2d31461036f5780633b47a9ac14610398576101d8565b806308ffc4a9116101b657806308ffc4a914610282578063095ea7b3146102ad57806317c95709146102d65780631c62094c14610313576101d8565b806301ffc9a7146101dd57806306fdde031461021a578063081812fc14610245575b600080fd5b3480156101e957600080fd5b5061020460048036038101906101ff9190613e05565b61078a565b6040516102119190613e4d565b60405180910390f35b34801561022657600080fd5b5061022f61086c565b60405161023c9190613ef8565b60405180910390f35b34801561025157600080fd5b5061026c60048036038101906102679190613f50565b6108fe565b6040516102799190613fbe565b60405180910390f35b34801561028e57600080fd5b50610297610944565b6040516102a491906142ad565b60405180910390f35b3480156102b957600080fd5b506102d460048036038101906102cf91906142fb565b610de6565b005b3480156102e257600080fd5b506102fd60048036038101906102f89190613f50565b610efd565b60405161030a919061435e565b60405180910390f35b34801561031f57600080fd5b50610328610f2e565b005b610344600480360381019061033f9190613f50565b611037565b005b34801561035257600080fd5b5061036d60048036038101906103689190614379565b61109d565b005b34801561037b57600080fd5b50610396600480360381019061039191906143cc565b6110fd565b005b3480156103a457600080fd5b506103ad6112e8565b6040516103ba91906142ad565b60405180910390f35b3480156103cf57600080fd5b506103ea60048036038101906103e59190614379565b611730565b005b61040660048036038101906104019190614425565b611750565b6040516104139190614474565b60405180910390f35b34801561042857600080fd5b50610443600480360381019061043e91906145c4565b611845565b005b34801561045157600080fd5b5061045a611883565b6040516104679190614474565b60405180910390f35b34801561047c57600080fd5b5061049760048036038101906104929190613f50565b611899565b6040516104a49190613fbe565b60405180910390f35b3480156104b957600080fd5b506104d460048036038101906104cf91906143cc565b61191f565b6040516104e19190614474565b60405180910390f35b3480156104f657600080fd5b50610511600480360381019061050c9190613f50565b6119d6565b005b34801561051f57600080fd5b5061053a60048036038101906105359190613f50565b611a07565b6040516105479190614745565b60405180910390f35b61056a60048036038101906105659190614425565b611d43565b005b34801561057857600080fd5b50610581611e64565b60405161058e9190613ef8565b60405180910390f35b3480156105a357600080fd5b506105be60048036038101906105b99190614793565b611ef6565b005b3480156105cc57600080fd5b506105e760048036038101906105e29190614874565b611f0c565b005b61060360048036038101906105fe9190613f50565b611f6e565b6040516106109190613e4d565b60405180910390f35b34801561062557600080fd5b50610640600480360381019061063b9190613f50565b61206d565b60405161064d9190613fbe565b60405180910390f35b34801561066257600080fd5b5061067d600480360381019061067891906143cc565b6120ab565b005b34801561068b57600080fd5b506106a660048036038101906106a19190613f50565b612384565b6040516106b39190613ef8565b60405180910390f35b3480156106c857600080fd5b506106e360048036038101906106de9190613f50565b612496565b005b3480156106f157600080fd5b5061070c60048036038101906107079190613f50565b6124c7565b6040516107199190613e4d565b60405180910390f35b34801561072e57600080fd5b506107376124d2565b60405161074491906142ad565b60405180910390f35b34801561075957600080fd5b50610774600480360381019061076f91906148f7565b61291a565b6040516107819190613e4d565b60405180910390f35b60007f80ac58cd000000000000000000000000000000000000000000000000000000007bffffffffffffffffffffffffffffffffffffffffffffffffffffffff1916827bffffffffffffffffffffffffffffffffffffffffffffffffffffffff1916148061085557507f5b5e139f000000000000000000000000000000000000000000000000000000007bffffffffffffffffffffffffffffffffffffffffffffffffffffffff1916827bffffffffffffffffffffffffffffffffffffffffffffffffffffffff1916145b806108655750610864826129c4565b5b9050919050565b60606000805461087b90614966565b80601f01602080910402602001604051908101604052809291908181526020018280546108a790614966565b80156108f45780601f106108c9576101008083540402835291602001916108f4565b820191906000526020600020905b8154815290600101906020018083116108d757829003601f168201915b5050505050905090565b600061090982612a2e565b6004600083815260200190815260200160002060009054906101000a900473ffffffffffffffffffffffffffffffffffffffff169050919050565b606060006109526007612a79565b905060008167ffffffffffffffff8111156109705761096f614499565b5b6040519080825280602002602001820160405280156109a957816020015b610996613d17565b81526020019060019003908161098e5790505b5090506000600190505b82811015610ddd576000600a600083815260200190815260200160002060040180549050905060005b81811015610dc8573373ffffffffffffffffffffffffffffffffffffffff16600a60008581526020019081526020016000206004018281548110610a2357610a22614997565b5b9060005260206000200160009054906101000a900473ffffffffffffffffffffffffffffffffffffffff1673ffffffffffffffffffffffffffffffffffffffff1603610db557600a600084815260200190815260200160002060405180610120016040529081600082015481526020016001820160009054906101000a900473ffffffffffffffffffffffffffffffffffffffff1673ffffffffffffffffffffffffffffffffffffffff1673ffffffffffffffffffffffffffffffffffffffff1681526020016002820160009054906101000a900473ffffffffffffffffffffffffffffffffffffffff1673ffffffffffffffffffffffffffffffffffffffff1673ffffffffffffffffffffffffffffffffffffffff1681526020016003820154815260200160048201805480602002602001604051908101604052809291908181526020018280548015610bcd57602002820191906000526020600020905b8160009054906101000a900473ffffffffffffffffffffffffffffffffffffffff1673ffffffffffffffffffffffffffffffffffffffff1681526020019060010190808311610b83575b5050505050815260200160058201548152602001600682018054610bf090614966565b80601f0160208091040260200160405190810160405280929190818152602001828054610c1c90614966565b8015610c695780601f10610c3e57610100808354040283529160200191610c69565b820191906000526020600020905b815481529060010190602001808311610c4c57829003601f168201915b50505050508152602001600782018054610c8290614966565b80601f0160208091040260200160405190810160405280929190818152602001828054610cae90614966565b8015610cfb5780601f10610cd057610100808354040283529160200191610cfb565b820191906000526020600020905b815481529060010190602001808311610cde57829003601f168201915b50505050508152602001600882018054610d1490614966565b80601f0160208091040260200160405190810160405280929190818152602001828054610d4090614966565b8015610d8d5780601f10610d6257610100808354040283529160200191610d8d565b820191906000526020600020905b815481529060010190602001808311610d7057829003601f168201915b505050505081525050848481518110610da957610da8614997565b5b60200260200101819052505b8080610dc0906149f5565b9150506109dc565b50508080610dd5906149f5565b9150506109b3565b50809250505090565b6000610df182611899565b90508073ffffffffffffffffffffffffffffffffffffffff168373ffffffffffffffffffffffffffffffffffffffff1603610e61576040517f08c379a0000000000000000000000000000000000000000000000000000000008152600401610e5890614aaf565b60405180910390fd5b8073ffffffffffffffffffffffffffffffffffffffff16610e80612a87565b73ffffffffffffffffffffffffffffffffffffffff161480610eaf5750610eae81610ea9612a87565b61291a565b5b610eee576040517f08c379a0000000000000000000000000000000000000000000000000000000008152600401610ee590614b41565b60405180910390fd5b610ef88383612a8f565b505050565b6000600c600083815260200190815260200160002060009054906101000a900467ffffffffffffffff169050919050565b6000610f3a6009612a79565b9050600080600190505b82811015610fcd573373ffffffffffffffffffffffffffffffffffffffff16600b600083815260200190815260200160002060000160009054906101000a900473ffffffffffffffffffffffffffffffffffffffff1673ffffffffffffffffffffffffffffffffffffffff1603610fba57600191505b8080610fc5906149f5565b915050610f44565b50806110295733600b600084815260200190815260200160002060000160006101000a81548173ffffffffffffffffffffffffffffffffffffffff021916908373ffffffffffffffffffffffffffffffffffffffff1602179055505b61103360096129ae565b5050565b600c600082815260200190815260200160002060006101000a81549067ffffffffffffffff0219169055807f2ec2be2c4b90c2cf13ecb6751a24daed6bb741ae5ed3f7371aabf9402f6d62e860006040516110929190614ba6565b60405180910390a250565b6110ae6110a8612a87565b82612b48565b6110ed576040517f08c379a00000000000000000000000000000000000000000000000000000000081526004016110e490614c33565b60405180910390fd5b6110f8838383612bdd565b505050565b60006111096009612a79565b90506000600190505b818110156112e3576111f5600b600083815260200190815260200160002060000160009054906101000a900473ffffffffffffffffffffffffffffffffffffffff16600b60008481526020019081526020016000206001018054806020026020016040519081016040528092919081815260200182805480156111ea57602002820191906000526020600020905b8160009054906101000a900473ffffffffffffffffffffffffffffffffffffffff1673ffffffffffffffffffffffffffffffffffffffff16815260200190600101908083116111a0575b505050505085612ed6565b6112d0600b600083815260200190815260200160002060000160009054906101000a900473ffffffffffffffffffffffffffffffffffffffff16600b60008481526020019081526020016000206002018054806020026020016040519081016040528092919081815260200182805480156112c557602002820191906000526020600020905b8160009054906101000a900473ffffffffffffffffffffffffffffffffffffffff1673ffffffffffffffffffffffffffffffffffffffff168152602001906001019080831161127b575b505050505033612fb8565b80806112db906149f5565b915050611112565b505050565b606060006112f66007612a79565b905060008167ffffffffffffffff81111561131457611313614499565b5b60405190808252806020026020018201604052801561134d57816020015b61133a613d17565b8152602001906001900390816113325790505b5090506000600190505b82811015611727573073ffffffffffffffffffffffffffffffffffffffff16600a600083815260200190815260200160002060020160009054906101000a900473ffffffffffffffffffffffffffffffffffffffff1673ffffffffffffffffffffffffffffffffffffffff160361171457600a600082815260200190815260200160002060405180610120016040529081600082015481526020016001820160009054906101000a900473ffffffffffffffffffffffffffffffffffffffff1673ffffffffffffffffffffffffffffffffffffffff1673ffffffffffffffffffffffffffffffffffffffff1681526020016002820160009054906101000a900473ffffffffffffffffffffffffffffffffffffffff1673ffffffffffffffffffffffffffffffffffffffff1673ffffffffffffffffffffffffffffffffffffffff168152602001600382015481526020016004820180548060200260200160405190810160405280929190818152602001828054801561152c57602002820191906000526020600020905b8160009054906101000a900473ffffffffffffffffffffffffffffffffffffffff1673ffffffffffffffffffffffffffffffffffffffff16815260200190600101908083116114e2575b505050505081526020016005820154815260200160068201805461154f90614966565b80601f016020809104026020016040519081016040528092919081815260200182805461157b90614966565b80156115c85780601f1061159d576101008083540402835291602001916115c8565b820191906000526020600020905b8154815290600101906020018083116115ab57829003601f168201915b505050505081526020016007820180546115e190614966565b80601f016020809104026020016040519081016040528092919081815260200182805461160d90614966565b801561165a5780601f1061162f5761010080835404028352916020019161165a565b820191906000526020600020905b81548152906001019060200180831161163d57829003601f168201915b5050505050815260200160088201805461167390614966565b80601f016020809104026020016040519081016040528092919081815260200182805461169f90614966565b80156116ec5780601f106116c1576101008083540402835291602001916116ec565b820191906000526020600020905b8154815290600101906020018083116116cf57829003601f168201915b50505050508152505082828151811061170857611707614997565b5b60200260200101819052505b808061171f906149f5565b915050611357565b50809250505090565b61174b83838360405180602001604052806000815250611f0c565b505050565b600061175c3384612b48565b61179b576040517f08c379a000000000000000000000000000000000000000000000000000000000815260040161179290614c9f565b60405180910390fd5b6117a6333085612bdd565b670de0b6b3a7640000346117ba9190614cee565b600a60008581526020019081526020016000206003018190555030600a600085815260200190815260200160002060020160006101000a81548173ffffffffffffffffffffffffffffffffffffffff021916908373ffffffffffffffffffffffffffffffffffffffff16021790555061183360086129ae565b61183d6008612a79565b905092915050565b60006118516007612a79565b905061185d338261309a565b61186781856132b7565b61187381848487613324565b61187d60076129ae565b50505050565b6000806118906009612a79565b90508091505090565b6000806118a583613503565b9050600073ffffffffffffffffffffffffffffffffffffffff168173ffffffffffffffffffffffffffffffffffffffff1603611916576040517f08c379a000000000000000000000000000000000000000000000000000000000815260040161190d90614d6b565b60405180910390fd5b80915050919050565b60008073ffffffffffffffffffffffffffffffffffffffff168273ffffffffffffffffffffffffffffffffffffffff160361198f576040517f08c379a000000000000000000000000000000000000000000000000000000000815260040161198690614dfd565b60405180910390fd5b600360008373ffffffffffffffffffffffffffffffffffffffff1673ffffffffffffffffffffffffffffffffffffffff168152602001908152602001600020549050919050565b6001600a600083815260200190815260200160002060050160008282546119fd9190614e1d565b9250508190555050565b611a0f613d17565b600a600083815260200190815260200160002060405180610120016040529081600082015481526020016001820160009054906101000a900473ffffffffffffffffffffffffffffffffffffffff1673ffffffffffffffffffffffffffffffffffffffff1673ffffffffffffffffffffffffffffffffffffffff1681526020016002820160009054906101000a900473ffffffffffffffffffffffffffffffffffffffff1673ffffffffffffffffffffffffffffffffffffffff1673ffffffffffffffffffffffffffffffffffffffff1681526020016003820154815260200160048201805480602002602001604051908101604052809291908181526020018280548015611b7357602002820191906000526020600020905b8160009054906101000a900473ffffffffffffffffffffffffffffffffffffffff1673ffffffffffffffffffffffffffffffffffffffff1681526020019060010190808311611b29575b5050505050815260200160058201548152602001600682018054611b9690614966565b80601f0160208091040260200160405190810160405280929190818152602001828054611bc290614966565b8015611c0f5780601f10611be457610100808354040283529160200191611c0f565b820191906000526020600020905b815481529060010190602001808311611bf257829003601f168201915b50505050508152602001600782018054611c2890614966565b80601f0160208091040260200160405190810160405280929190818152602001828054611c5490614966565b8015611ca15780601f10611c7657610100808354040283529160200191611ca1565b820191906000526020600020905b815481529060010190602001808311611c8457829003601f168201915b50505050508152602001600882018054611cba90614966565b80601f0160208091040260200160405190810160405280929190818152602001828054611ce690614966565b8015611d335780601f10611d0857610100808354040283529160200191611d33565b820191906000526020600020905b815481529060010190602001808311611d1657829003601f168201915b5050505050815250509050919050565b6000600c600084815260200190815260200160002060009054906101000a900467ffffffffffffffff1690506000808267ffffffffffffffff1603611d95578242611d8e9190614e51565b9050611dec565b611d9e846124c7565b611ddd576040517f08c379a0000000000000000000000000000000000000000000000000000000008152600401611dd490614ed9565b60405180910390fd5b8282611de99190614e51565b90505b80600c600086815260200190815260200160002060006101000a81548167ffffffffffffffff021916908367ffffffffffffffff160217905550837f2ec2be2c4b90c2cf13ecb6751a24daed6bb741ae5ed3f7371aabf9402f6d62e882604051611e56919061435e565b60405180910390a250505050565b606060018054611e7390614966565b80601f0160208091040260200160405190810160405280929190818152602001828054611e9f90614966565b8015611eec5780601f10611ec157610100808354040283529160200191611eec565b820191906000526020600020905b815481529060010190602001808311611ecf57829003601f168201915b5050505050905090565b611f08611f01612a87565b8383613540565b5050565b611f1d611f17612a87565b83612b48565b611f5c576040517f08c379a0000000000000000000000000000000000000000000000000000000008152600401611f5390614c33565b60405180910390fd5b611f68848484846136ac565b50505050565b6000600a600083815260200190815260200160002060010160009054906101000a900473ffffffffffffffffffffffffffffffffffffffff1673ffffffffffffffffffffffffffffffffffffffff166108fc349081150290604051600060405180830381858888f19350505050158015611fec573d6000803e3d6000fd5b50600a6000838152602001908152602001600020600401339080600181540180825580915050600190039060005260206000200160009091909190916101000a81548173ffffffffffffffffffffffffffffffffffffffff021916908373ffffffffffffffffffffffffffffffffffffffff16021790555060019050919050565b600b6020528060005260406000206000915090508060000160009054906101000a900473ffffffffffffffffffffffffffffffffffffffff16905081565b6120b481613708565b6120bd33613708565b60006120c96009612a79565b90506120d4816137a1565b6000600190505b8181101561237f57612122600b600083815260200190815260200160002060000160009054906101000a900473ffffffffffffffffffffffffffffffffffffffff16613708565b3373ffffffffffffffffffffffffffffffffffffffff16600b600083815260200190815260200160002060000160009054906101000a900473ffffffffffffffffffffffffffffffffffffffff1673ffffffffffffffffffffffffffffffffffffffff160361222957600b6000828152602001908152602001600020600201839080600181540180825580915050600190039060005260206000200160009091909190916101000a81548173ffffffffffffffffffffffffffffffffffffffff021916908373ffffffffffffffffffffffffffffffffffffffff160217905550612224600b6000838152602001908152602001600020600201805490506137a1565b61230b565b8273ffffffffffffffffffffffffffffffffffffffff16600b600083815260200190815260200160002060000160009054906101000a900473ffffffffffffffffffffffffffffffffffffffff1673ffffffffffffffffffffffffffffffffffffffff160361230a57600b6000828152602001908152602001600020600101339080600181540180825580915050600190039060005260206000200160009091909190916101000a81548173ffffffffffffffffffffffffffffffffffffffff021916908373ffffffffffffffffffffffffffffffffffffffff1602179055505b5b61234a600b600083815260200190815260200160002060000160009054906101000a900473ffffffffffffffffffffffffffffffffffffffff16613708565b61236c600b6000838152602001908152602001600020600201805490506137a1565b8080612377906149f5565b9150506120db565b505050565b606061238f82612a2e565b60006006600084815260200190815260200160002080546123af90614966565b80601f01602080910402602001604051908101604052809291908181526020018280546123db90614966565b80156124285780601f106123fd57610100808354040283529160200191612428565b820191906000526020600020905b81548152906001019060200180831161240b57829003601f168201915b50505050509050600061243961383a565b9050600081510361244e578192505050612491565b60008251111561248357808260405160200161246b929190614f35565b60405160208183030381529060405292505050612491565b61248c84613851565b925050505b919050565b6001600a600083815260200190815260200160002060050160008282546124bd9190614f59565b9250508190555050565b600060019050919050565b606060006124e06007612a79565b905060008167ffffffffffffffff8111156124fe576124fd614499565b5b60405190808252806020026020018201604052801561253757816020015b612524613d17565b81526020019060019003908161251c5790505b5090506000600190505b82811015612911573373ffffffffffffffffffffffffffffffffffffffff16600a600083815260200190815260200160002060010160009054906101000a900473ffffffffffffffffffffffffffffffffffffffff1673ffffffffffffffffffffffffffffffffffffffff16036128fe57600a600082815260200190815260200160002060405180610120016040529081600082015481526020016001820160009054906101000a900473ffffffffffffffffffffffffffffffffffffffff1673ffffffffffffffffffffffffffffffffffffffff1673ffffffffffffffffffffffffffffffffffffffff1681526020016002820160009054906101000a900473ffffffffffffffffffffffffffffffffffffffff1673ffffffffffffffffffffffffffffffffffffffff1673ffffffffffffffffffffffffffffffffffffffff168152602001600382015481526020016004820180548060200260200160405190810160405280929190818152602001828054801561271657602002820191906000526020600020905b8160009054906101000a900473ffffffffffffffffffffffffffffffffffffffff1673ffffffffffffffffffffffffffffffffffffffff16815260200190600101908083116126cc575b505050505081526020016005820154815260200160068201805461273990614966565b80601f016020809104026020016040519081016040528092919081815260200182805461276590614966565b80156127b25780601f10612787576101008083540402835291602001916127b2565b820191906000526020600020905b81548152906001019060200180831161279557829003601f168201915b505050505081526020016007820180546127cb90614966565b80601f01602080910402602001604051908101604052809291908181526020018280546127f790614966565b80156128445780601f1061281957610100808354040283529160200191612844565b820191906000526020600020905b81548152906001019060200180831161282757829003601f168201915b5050505050815260200160088201805461285d90614966565b80601f016020809104026020016040519081016040528092919081815260200182805461288990614966565b80156128d65780601f106128ab576101008083540402835291602001916128d6565b820191906000526020600020905b8154815290600101906020018083116128b957829003601f168201915b5050505050815250508282815181106128f2576128f1614997565b5b60200260200101819052505b8080612909906149f5565b915050612541565b50809250505090565b6000600560008473ffffffffffffffffffffffffffffffffffffffff1673ffffffffffffffffffffffffffffffffffffffff16815260200190815260200160002060008373ffffffffffffffffffffffffffffffffffffffff1673ffffffffffffffffffffffffffffffffffffffff16815260200190815260200160002060009054906101000a900460ff16905092915050565b6001816000016000828254019250508190555050565b60007f01ffc9a7000000000000000000000000000000000000000000000000000000007bffffffffffffffffffffffffffffffffffffffffffffffffffffffff1916827bffffffffffffffffffffffffffffffffffffffffffffffffffffffff1916149050919050565b612a37816138b9565b612a76576040517f08c379a0000000000000000000000000000000000000000000000000000000008152600401612a6d90614d6b565b60405180910390fd5b50565b600081600001549050919050565b600033905090565b816004600083815260200190815260200160002060006101000a81548173ffffffffffffffffffffffffffffffffffffffff021916908373ffffffffffffffffffffffffffffffffffffffff160217905550808273ffffffffffffffffffffffffffffffffffffffff16612b0283611899565b73ffffffffffffffffffffffffffffffffffffffff167f8c5be1e5ebec7d5bd14f71427d1e84f3dd0314c0f7b2291e5b200ac8c7c3b92560405160405180910390a45050565b600080612b5483611899565b90508073ffffffffffffffffffffffffffffffffffffffff168473ffffffffffffffffffffffffffffffffffffffff161480612b965750612b95818561291a565b5b80612bd457508373ffffffffffffffffffffffffffffffffffffffff16612bbc846108fe565b73ffffffffffffffffffffffffffffffffffffffff16145b91505092915050565b8273ffffffffffffffffffffffffffffffffffffffff16612bfd82611899565b73ffffffffffffffffffffffffffffffffffffffff1614612c53576040517f08c379a0000000000000000000000000000000000000000000000000000000008152600401612c4a90614fff565b60405180910390fd5b600073ffffffffffffffffffffffffffffffffffffffff168273ffffffffffffffffffffffffffffffffffffffff1603612cc2576040517f08c379a0000000000000000000000000000000000000000000000000000000008152600401612cb990615091565b60405180910390fd5b612ccf83838360016138fa565b8273ffffffffffffffffffffffffffffffffffffffff16612cef82611899565b73ffffffffffffffffffffffffffffffffffffffff1614612d45576040517f08c379a0000000000000000000000000000000000000000000000000000000008152600401612d3c90614fff565b60405180910390fd5b6004600082815260200190815260200160002060006101000a81549073ffffffffffffffffffffffffffffffffffffffff02191690556001600360008573ffffffffffffffffffffffffffffffffffffffff1673ffffffffffffffffffffffffffffffffffffffff168152602001908152602001600020600082825403925050819055506001600360008473ffffffffffffffffffffffffffffffffffffffff1673ffffffffffffffffffffffffffffffffffffffff16815260200190815260200160002060008282540192505081905550816002600083815260200190815260200160002060006101000a81548173ffffffffffffffffffffffffffffffffffffffff021916908373ffffffffffffffffffffffffffffffffffffffff160217905550808273ffffffffffffffffffffffffffffffffffffffff168473ffffffffffffffffffffffffffffffffffffffff167fddf252ad1be2c89b69c2b068fc378daa952ba7f163c4a11628f55a4df523b3ef60405160405180910390a4612ed18383836001613900565b505050565b8073ffffffffffffffffffffffffffffffffffffffff168373ffffffffffffffffffffffffffffffffffffffff1603612fb357600082905060005b8151811015612fb0573373ffffffffffffffffffffffffffffffffffffffff16828281518110612f4457612f43614997565b5b602002602001015173ffffffffffffffffffffffffffffffffffffffff1603612f9d57818181518110612f7a57612f79614997565b5b60200260200101600073ffffffffffffffffffffffffffffffffffffffff168152505b8080612fa8906149f5565b915050612f11565b50505b505050565b8073ffffffffffffffffffffffffffffffffffffffff168373ffffffffffffffffffffffffffffffffffffffff160361309557600082905060005b8151811015613092578273ffffffffffffffffffffffffffffffffffffffff1682828151811061302657613025614997565b5b602002602001015173ffffffffffffffffffffffffffffffffffffffff160361307f5781818151811061305c5761305b614997565b5b60200260200101600073ffffffffffffffffffffffffffffffffffffffff168152505b808061308a906149f5565b915050612ff3565b50505b505050565b600073ffffffffffffffffffffffffffffffffffffffff168273ffffffffffffffffffffffffffffffffffffffff1603613109576040517f08c379a0000000000000000000000000000000000000000000000000000000008152600401613100906150fd565b60405180910390fd5b613112816138b9565b15613152576040517f08c379a000000000000000000000000000000000000000000000000000000000815260040161314990615169565b60405180910390fd5b6131606000838360016138fa565b613169816138b9565b156131a9576040517f08c379a00000000000000000000000000000000000000000000000000000000081526004016131a090615169565b60405180910390fd5b6001600360008473ffffffffffffffffffffffffffffffffffffffff1673ffffffffffffffffffffffffffffffffffffffff16815260200190815260200160002060008282540192505081905550816002600083815260200190815260200160002060006101000a81548173ffffffffffffffffffffffffffffffffffffffff021916908373ffffffffffffffffffffffffffffffffffffffff160217905550808273ffffffffffffffffffffffffffffffffffffffff16600073ffffffffffffffffffffffffffffffffffffffff167fddf252ad1be2c89b69c2b068fc378daa952ba7f163c4a11628f55a4df523b3ef60405160405180910390a46132b3600083836001613900565b5050565b6132c0826138b9565b6132ff576040517f08c379a00000000000000000000000000000000000000000000000000000000081526004016132f6906151fb565b60405180910390fd5b8060066000848152602001908152602001600020908161331f91906153bd565b505050565b83600a60008681526020019081526020016000206000018190555033600a600086815260200190815260200160002060010160006101000a81548173ffffffffffffffffffffffffffffffffffffffff021916908373ffffffffffffffffffffffffffffffffffffffff16021790555033600a600086815260200190815260200160002060020160006101000a81548173ffffffffffffffffffffffffffffffffffffffff021916908373ffffffffffffffffffffffffffffffffffffffff1602179055506000600a6000868152602001908152602001600020600301819055506001600a60008681526020019081526020016000206005018190555082600a6000868152602001908152602001600020600601908161344491906153bd565b5081600a6000868152602001908152602001600020600701908161346891906153bd565b5080600a6000868152602001908152602001600020600801908161348c91906153bd565b50837f6b0636364e6bb3c1836823c4035fa96c342686af76b1ec221f6fec7b83fc272033336000600a60008a8152602001908152602001600020600401600a60008b81526020019081526020016000206005015489896040516134f597969594939291906155cc565b60405180910390a250505050565b60006002600083815260200190815260200160002060009054906101000a900473ffffffffffffffffffffffffffffffffffffffff169050919050565b8173ffffffffffffffffffffffffffffffffffffffff168373ffffffffffffffffffffffffffffffffffffffff16036135ae576040517f08c379a00000000000000000000000000000000000000000000000000000000081526004016135a59061569c565b60405180910390fd5b80600560008573ffffffffffffffffffffffffffffffffffffffff1673ffffffffffffffffffffffffffffffffffffffff16815260200190815260200160002060008473ffffffffffffffffffffffffffffffffffffffff1673ffffffffffffffffffffffffffffffffffffffff16815260200190815260200160002060006101000a81548160ff0219169083151502179055508173ffffffffffffffffffffffffffffffffffffffff168373ffffffffffffffffffffffffffffffffffffffff167f17307eab39ab6107e8899845ad3d59bd9653f200f220920489ca2b5937696c318360405161369f9190613e4d565b60405180910390a3505050565b6136b7848484612bdd565b6136c384848484613906565b613702576040517f08c379a00000000000000000000000000000000000000000000000000000000081526004016136f99061572e565b60405180910390fd5b50505050565b61379e8160405160240161371c9190613fbe565b6040516020818303038152906040527f2c2ecbc2000000000000000000000000000000000000000000000000000000007bffffffffffffffffffffffffffffffffffffffffffffffffffffffff19166020820180517bffffffffffffffffffffffffffffffffffffffffffffffffffffffff8381831617835250505050613a8d565b50565b613837816040516024016137b59190614474565b6040516020818303038152906040527ff82c50f1000000000000000000000000000000000000000000000000000000007bffffffffffffffffffffffffffffffffffffffffffffffffffffffff19166020820180517bffffffffffffffffffffffffffffffffffffffffffffffffffffffff8381831617835250505050613a8d565b50565b606060405180602001604052806000815250905090565b606061385c82612a2e565b600061386661383a565b9050600081511161388657604051806020016040528060008152506138b1565b8061389084613aa7565b6040516020016138a1929190614f35565b6040516020818303038152906040525b915050919050565b60008073ffffffffffffffffffffffffffffffffffffffff166138db83613503565b73ffffffffffffffffffffffffffffffffffffffff1614159050919050565b50505050565b50505050565b60006139278473ffffffffffffffffffffffffffffffffffffffff16613b75565b15613a80578373ffffffffffffffffffffffffffffffffffffffff1663150b7a02613950612a87565b8786866040518563ffffffff1660e01b815260040161397294939291906157a3565b6020604051808303816000875af19250505080156139ae57506040513d601f19601f820116820180604052508101906139ab9190615804565b60015b613a30573d80600081146139de576040519150601f19603f3d011682016040523d82523d6000602084013e6139e3565b606091505b506000815103613a28576040517f08c379a0000000000000000000000000000000000000000000000000000000008152600401613a1f9061572e565b60405180910390fd5b805181602001fd5b63150b7a0260e01b7bffffffffffffffffffffffffffffffffffffffffffffffffffffffff1916817bffffffffffffffffffffffffffffffffffffffffffffffffffffffff191614915050613a85565b600190505b949350505050565b613aa481613a9c613b98613bb9565b63ffffffff16565b50565b606060006001613ab684613bc4565b01905060008167ffffffffffffffff811115613ad557613ad4614499565b5b6040519080825280601f01601f191660200182016040528015613b075781602001600182028036833780820191505090505b509050600082602001820190505b600115613b6a578080600190039150507f3031323334353637383961626364656600000000000000000000000000000000600a86061a8153600a8581613b5e57613b5d614cbf565b5b04945060008503613b15575b819350505050919050565b6000808273ffffffffffffffffffffffffffffffffffffffff163b119050919050565b60006a636f6e736f6c652e6c6f679050600080835160208501845afa505050565b613d8f819050919050565b600080600090507a184f03e93ff9f4daa797ed6e38ed64bf6a1f0100000000000000008310613c22577a184f03e93ff9f4daa797ed6e38ed64bf6a1f0100000000000000008381613c1857613c17614cbf565b5b0492506040810190505b6d04ee2d6d415b85acef81000000008310613c5f576d04ee2d6d415b85acef81000000008381613c5557613c54614cbf565b5b0492506020810190505b662386f26fc100008310613c8e57662386f26fc100008381613c8457613c83614cbf565b5b0492506010810190505b6305f5e1008310613cb7576305f5e1008381613cad57613cac614cbf565b5b0492506008810190505b6127108310613cdc576127108381613cd257613cd1614cbf565b5b0492506004810190505b60648310613cff5760648381613cf557613cf4614cbf565b5b0492506002810190505b600a8310613d0e576001810190505b80915050919050565b60405180610120016040528060008152602001600073ffffffffffffffffffffffffffffffffffffffff168152602001600073ffffffffffffffffffffffffffffffffffffffff1681526020016000815260200160608152602001600081526020016060815260200160608152602001606081525090565b613d97615831565b565b6000604051905090565b600080fd5b600080fd5b60007fffffffff0000000000000000000000000000000000000000000000000000000082169050919050565b613de281613dad565b8114613ded57600080fd5b50565b600081359050613dff81613dd9565b92915050565b600060208284031215613e1b57613e1a613da3565b5b6000613e2984828501613df0565b91505092915050565b60008115159050919050565b613e4781613e32565b82525050565b6000602082019050613e626000830184613e3e565b92915050565b600081519050919050565b600082825260208201905092915050565b60005b83811015613ea2578082015181840152602081019050613e87565b60008484015250505050565b6000601f19601f8301169050919050565b6000613eca82613e68565b613ed48185613e73565b9350613ee4818560208601613e84565b613eed81613eae565b840191505092915050565b60006020820190508181036000830152613f128184613ebf565b905092915050565b6000819050919050565b613f2d81613f1a565b8114613f3857600080fd5b50565b600081359050613f4a81613f24565b92915050565b600060208284031215613f6657613f65613da3565b5b6000613f7484828501613f3b565b91505092915050565b600073ffffffffffffffffffffffffffffffffffffffff82169050919050565b6000613fa882613f7d565b9050919050565b613fb881613f9d565b82525050565b6000602082019050613fd36000830184613faf565b92915050565b600081519050919050565b600082825260208201905092915050565b6000819050602082019050919050565b61400e81613f1a565b82525050565b600061401f82613f7d565b9050919050565b61402f81614014565b82525050565b600081519050919050565b600082825260208201905092915050565b6000819050602082019050919050565b61406a81613f9d565b82525050565b600061407c8383614061565b60208301905092915050565b6000602082019050919050565b60006140a082614035565b6140aa8185614040565b93506140b583614051565b8060005b838110156140e65781516140cd8882614070565b97506140d883614088565b9250506001810190506140b9565b5085935050505092915050565b600082825260208201905092915050565b600061410f82613e68565b61411981856140f3565b9350614129818560208601613e84565b61413281613eae565b840191505092915050565b6000610120830160008301516141566000860182614005565b5060208301516141696020860182614026565b50604083015161417c6040860182614026565b50606083015161418f6060860182614005565b50608083015184820360808601526141a78282614095565b91505060a08301516141bc60a0860182614005565b5060c083015184820360c08601526141d48282614104565b91505060e083015184820360e08601526141ee8282614104565b91505061010083015184820361010086015261420a8282614104565b9150508091505092915050565b6000614223838361413d565b905092915050565b6000602082019050919050565b600061424382613fd9565b61424d8185613fe4565b93508360208202850161425f85613ff5565b8060005b8581101561429b578484038952815161427c8582614217565b94506142878361422b565b925060208a01995050600181019050614263565b50829750879550505050505092915050565b600060208201905081810360008301526142c78184614238565b905092915050565b6142d881613f9d565b81146142e357600080fd5b50565b6000813590506142f5816142cf565b92915050565b6000806040838503121561431257614311613da3565b5b6000614320858286016142e6565b925050602061433185828601613f3b565b9150509250929050565b600067ffffffffffffffff82169050919050565b6143588161433b565b82525050565b6000602082019050614373600083018461434f565b92915050565b60008060006060848603121561439257614391613da3565b5b60006143a0868287016142e6565b93505060206143b1868287016142e6565b92505060406143c286828701613f3b565b9150509250925092565b6000602082840312156143e2576143e1613da3565b5b60006143f0848285016142e6565b91505092915050565b6144028161433b565b811461440d57600080fd5b50565b60008135905061441f816143f9565b92915050565b6000806040838503121561443c5761443b613da3565b5b600061444a85828601613f3b565b925050602061445b85828601614410565b9150509250929050565b61446e81613f1a565b82525050565b60006020820190506144896000830184614465565b92915050565b600080fd5b600080fd5b7f4e487b7100000000000000000000000000000000000000000000000000000000600052604160045260246000fd5b6144d182613eae565b810181811067ffffffffffffffff821117156144f0576144ef614499565b5b80604052505050565b6000614503613d99565b905061450f82826144c8565b919050565b600067ffffffffffffffff82111561452f5761452e614499565b5b61453882613eae565b9050602081019050919050565b82818337600083830152505050565b600061456761456284614514565b6144f9565b90508281526020810184848401111561458357614582614494565b5b61458e848285614545565b509392505050565b600082601f8301126145ab576145aa61448f565b5b81356145bb848260208601614554565b91505092915050565b6000806000606084860312156145dd576145dc613da3565b5b600084013567ffffffffffffffff8111156145fb576145fa613da8565b5b61460786828701614596565b935050602084013567ffffffffffffffff81111561462857614627613da8565b5b61463486828701614596565b925050604084013567ffffffffffffffff81111561465557614654613da8565b5b61466186828701614596565b9150509250925092565b6000610120830160008301516146846000860182614005565b5060208301516146976020860182614026565b5060408301516146aa6040860182614026565b5060608301516146bd6060860182614005565b50608083015184820360808601526146d58282614095565b91505060a08301516146ea60a0860182614005565b5060c083015184820360c08601526147028282614104565b91505060e083015184820360e086015261471c8282614104565b9150506101008301518482036101008601526147388282614104565b9150508091505092915050565b6000602082019050818103600083015261475f818461466b565b905092915050565b61477081613e32565b811461477b57600080fd5b50565b60008135905061478d81614767565b92915050565b600080604083850312156147aa576147a9613da3565b5b60006147b8858286016142e6565b92505060206147c98582860161477e565b9150509250929050565b600067ffffffffffffffff8211156147ee576147ed614499565b5b6147f782613eae565b9050602081019050919050565b6000614817614812846147d3565b6144f9565b90508281526020810184848401111561483357614832614494565b5b61483e848285614545565b509392505050565b600082601f83011261485b5761485a61448f565b5b813561486b848260208601614804565b91505092915050565b6000806000806080858703121561488e5761488d613da3565b5b600061489c878288016142e6565b94505060206148ad878288016142e6565b93505060406148be87828801613f3b565b925050606085013567ffffffffffffffff8111156148df576148de613da8565b5b6148eb87828801614846565b91505092959194509250565b6000806040838503121561490e5761490d613da3565b5b600061491c858286016142e6565b925050602061492d858286016142e6565b9150509250929050565b7f4e487b7100000000000000000000000000000000000000000000000000000000600052602260045260246000fd5b6000600282049050600182168061497e57607f821691505b60208210810361499157614990614937565b5b50919050565b7f4e487b7100000000000000000000000000000000000000000000000000000000600052603260045260246000fd5b7f4e487b7100000000000000000000000000000000000000000000000000000000600052601160045260246000fd5b6000614a0082613f1a565b91507fffffffffffffffffffffffffffffffffffffffffffffffffffffffffffffffff8203614a3257614a316149c6565b5b600182019050919050565b7f4552433732313a20617070726f76616c20746f2063757272656e74206f776e6560008201527f7200000000000000000000000000000000000000000000000000000000000000602082015250565b6000614a99602183613e73565b9150614aa482614a3d565b604082019050919050565b60006020820190508181036000830152614ac881614a8c565b9050919050565b7f4552433732313a20617070726f76652063616c6c6572206973206e6f7420746f60008201527f6b656e206f776e6572206f7220617070726f76656420666f7220616c6c000000602082015250565b6000614b2b603d83613e73565b9150614b3682614acf565b604082019050919050565b60006020820190508181036000830152614b5a81614b1e565b9050919050565b6000819050919050565b6000819050919050565b6000614b90614b8b614b8684614b61565b614b6b565b61433b565b9050919050565b614ba081614b75565b82525050565b6000602082019050614bbb6000830184614b97565b92915050565b7f4552433732313a2063616c6c6572206973206e6f7420746f6b656e206f776e6560008201527f72206f7220617070726f76656400000000000000000000000000000000000000602082015250565b6000614c1d602d83613e73565b9150614c2882614bc1565b604082019050919050565b60006020820190508181036000830152614c4c81614c10565b9050919050565b7f4f6e6c79204e4654206f776e65722063616e20706572666f726d207468697300600082015250565b6000614c89601f83613e73565b9150614c9482614c53565b602082019050919050565b60006020820190508181036000830152614cb881614c7c565b9050919050565b7f4e487b7100000000000000000000000000000000000000000000000000000000600052601260045260246000fd5b6000614cf982613f1a565b9150614d0483613f1a565b925082614d1457614d13614cbf565b5b828204905092915050565b7f4552433732313a20696e76616c696420746f6b656e2049440000000000000000600082015250565b6000614d55601883613e73565b9150614d6082614d1f565b602082019050919050565b60006020820190508181036000830152614d8481614d48565b9050919050565b7f4552433732313a2061646472657373207a65726f206973206e6f74206120766160008201527f6c6964206f776e65720000000000000000000000000000000000000000000000602082015250565b6000614de7602983613e73565b9150614df282614d8b565b604082019050919050565b60006020820190508181036000830152614e1681614dda565b9050919050565b6000614e2882613f1a565b9150614e3383613f1a565b9250828203905081811115614e4b57614e4a6149c6565b5b92915050565b6000614e5c8261433b565b9150614e678361433b565b9250828201905067ffffffffffffffff811115614e8757614e866149c6565b5b92915050565b7f537562736372697074696f6e204e6f742052656e657761626c65000000000000600082015250565b6000614ec3601a83613e73565b9150614ece82614e8d565b602082019050919050565b60006020820190508181036000830152614ef281614eb6565b9050919050565b600081905092915050565b6000614f0f82613e68565b614f198185614ef9565b9350614f29818560208601613e84565b80840191505092915050565b6000614f418285614f04565b9150614f4d8284614f04565b91508190509392505050565b6000614f6482613f1a565b9150614f6f83613f1a565b9250828201905080821115614f8757614f866149c6565b5b92915050565b7f4552433732313a207472616e736665722066726f6d20696e636f72726563742060008201527f6f776e6572000000000000000000000000000000000000000000000000000000602082015250565b6000614fe9602583613e73565b9150614ff482614f8d565b604082019050919050565b6000602082019050818103600083015261501881614fdc565b9050919050565b7f4552433732313a207472616e7366657220746f20746865207a65726f2061646460008201527f7265737300000000000000000000000000000000000000000000000000000000602082015250565b600061507b602483613e73565b91506150868261501f565b604082019050919050565b600060208201905081810360008301526150aa8161506e565b9050919050565b7f4552433732313a206d696e7420746f20746865207a65726f2061646472657373600082015250565b60006150e7602083613e73565b91506150f2826150b1565b602082019050919050565b60006020820190508181036000830152615116816150da565b9050919050565b7f4552433732313a20746f6b656e20616c7265616479206d696e74656400000000600082015250565b6000615153601c83613e73565b915061515e8261511d565b602082019050919050565b6000602082019050818103600083015261518281615146565b9050919050565b7f45524337323155524953746f726167653a2055524920736574206f66206e6f6e60008201527f6578697374656e7420746f6b656e000000000000000000000000000000000000602082015250565b60006151e5602e83613e73565b91506151f082615189565b604082019050919050565b60006020820190508181036000830152615214816151d8565b9050919050565b60008190508160005260206000209050919050565b60006020601f8301049050919050565b600082821b905092915050565b60006008830261527d7fffffffffffffffffffffffffffffffffffffffffffffffffffffffffffffffff82615240565b6152878683615240565b95508019841693508086168417925050509392505050565b60006152ba6152b56152b084613f1a565b614b6b565b613f1a565b9050919050565b6000819050919050565b6152d48361529f565b6152e86152e0826152c1565b84845461524d565b825550505050565b600090565b6152fd6152f0565b6153088184846152cb565b505050565b5b8181101561532c576153216000826152f5565b60018101905061530e565b5050565b601f821115615371576153428161521b565b61534b84615230565b8101602085101561535a578190505b61536e61536685615230565b83018261530d565b50505b505050565b600082821c905092915050565b600061539460001984600802615376565b1980831691505092915050565b60006153ad8383615383565b9150826002028217905092915050565b6153c682613e68565b67ffffffffffffffff8111156153df576153de614499565b5b6153e98254614966565b6153f4828285615330565b600060209050601f8311600181146154275760008415615415578287015190505b61541f85826153a1565b865550615487565b601f1984166154358661521b565b60005b8281101561545d57848901518255600182019150602085019450602081019050615438565b8683101561547a5784890151615476601f891682615383565b8355505b6001600288020188555050505b505050505050565b61549881614014565b82525050565b60006154b96154b46154af84614b61565b614b6b565b613f1a565b9050919050565b6154c98161549e565b82525050565b600081549050919050565b600082825260208201905092915050565b60008190508160005260206000209050919050565b60008160001c9050919050565b600073ffffffffffffffffffffffffffffffffffffffff82169050919050565b600061554061553b83615500565b61550d565b9050919050565b6000615553825461552d565b9050919050565b6000600182019050919050565b6000615572826154cf565b61557c81856154da565b9350615587836154eb565b8060005b838110156155bf5761559c82615547565b6155a68882614070565b97506155b18361555a565b92505060018101905061558b565b5085935050505092915050565b600060e0820190506155e1600083018a61548f565b6155ee602083018961548f565b6155fb60408301886154c0565b818103606083015261560d8187615567565b905061561c6080830186614465565b81810360a083015261562e8185613ebf565b905081810360c08301526156428184613ebf565b905098975050505050505050565b7f4552433732313a20617070726f766520746f2063616c6c657200000000000000600082015250565b6000615686601983613e73565b915061569182615650565b602082019050919050565b600060208201905081810360008301526156b581615679565b9050919050565b7f4552433732313a207472616e7366657220746f206e6f6e20455243373231526560008201527f63656976657220696d706c656d656e7465720000000000000000000000000000602082015250565b6000615718603283613e73565b9150615723826156bc565b604082019050919050565b600060208201905081810360008301526157478161570b565b9050919050565b600081519050919050565b600082825260208201905092915050565b60006157758261574e565b61577f8185615759565b935061578f818560208601613e84565b61579881613eae565b840191505092915050565b60006080820190506157b86000830187613faf565b6157c56020830186613faf565b6157d26040830185614465565b81810360608301526157e4818461576a565b905095945050505050565b6000815190506157fe81613dd9565b92915050565b60006020828403121561581a57615819613da3565b5b6000615828848285016157ef565b91505092915050565b7f4e487b7100000000000000000000000000000000000000000000000000000000600052605160045260246000fdfea26469706673582212205526dfcda984ca9b2e8deda536f4e5ee08bba62440fa0261e38aa4610a7f31c264736f6c63430008120033",
  "linkReferences": {},
  "deployedLinkReferences": {}
}